:100000000C94AA000C940C020C94C7000C94C7002A
:100010000C94C7000C94C7000C94C7000C94C70044
:100020000C94C7000C94C7000C94C7000C94AE0548
:100030000C94C7000C94C7000C94C7000C94C70024
:100040000C94C7000C94C7000C94C7000C94C70014
:100050000C94C7000000000000C800000000000071
:1000600000005E00000000000071310000007A73A3
:10007000617732000063786465343300002076666F
:1000800074723500006E626867793607082C6D6AF5
:1000900075373800002C6B696F303900002E2F6CDB
:1000A0003B702D00000060005B3D000000000D5D16
:1000B000005C00003C000000000800003100343704
:1000C000000000302C323536380000002B332D2A4A
:1000D000390000000000000000C80000000000001F
:1000E00000005E00000000000051210000005A5393
:1000F0004157400000435844452423000020564601
:1001000054522500004E424847595E07082C4D4A7C
:1001100055262A00003C4B494F292800003E3F4C01
:100120003A502D00000022007B3D000000000D7DB4
:10013000007C0000003C000000000800003100349A
:1001400037000000302C323536380000002B332DBC
:100150002A39000011241FBECFE5D4E0DEBFCDBF99
:1001600010E0A0E6B0E0ECE4FFE002C005900D92E4
:10017000AE3EB107D9F711E0AEEEB0E001C01D927E
:10018000A539B107E1F70E94CD040C94C9000C9485
:100190000000F8940C94A40780FF02C0DC9A01C010
:1001A000DC9881FF02C0DB9A01C0DB9882FF02C0AD
:1001B000DA9A01C0DA9883FF02C0D99A0895D998D3
:1001C000089589B390E024E0969587952A95E1F704
:1001D0008170CB998260CA998460C99988600895BA
:1001E0001F93D498D398D298D198A89AA99A0E948C
:1001F000E100182F1295107FA998A99A0E94E1009A
:10020000A998812B1F91089597980E94F000089556
:100210001F93182FD49AD39AD29AD19AA898A99AB0
:1002200082958F700E94CC00A998A99A812F0E9474
:10023000CC00A9980E94040187FDFCCF1F9108956E
:1002400097980E9408010895979A0E9408010895BE
:10025000979A0E94F0000895CF93DF93EC0103C0BA
:1002600021960E94240188818823D1F7DF91CF91C4
:1002700008956295660F660F607C680F862F806810
:100280000E942001089581E00E94200180EA9FE001
:100290000197F1F7089582E00E94200180EA9FE033
:1002A0000197F1F708951F93CF93DF93D49AD39AD0
:1002B000D29AD19AA19A8F9AA09A80E395E7019752
:1002C000F1F79798A998A89810E0C0E1D7E2A99A09
:1002D00083E00E94CC00A998CE010197F1F71F5F3F
:1002E0001330A9F7A99A82E00E94CC00A99880ED6A
:1002F00097E00197F1F788E20E94200188E00E94D0
:10030000200181E00E94200186E00E9420018CE013
:100310000E942001DF91CF911F9108953E9A379A54
:10032000369A339A08958E98969A8A98929A8BB7AD
:1003300080648BBF85B7826085BF78940895809173
:10034000EF008823E1F31092EF008091EE00089512
:10035000DF93CF9300D0CDB7DEB7809143018823E0
:1003600009F455C080914901882309F450C01092C6
:100370004901E0914801F0E0EC5AFF4FE491E98334
:1003800080914801883531F48091F10091E089270E
:100390008093F10080914801853021F481E08093C1
:1003A000450119828091F100882391F09981892F6C
:1003B00081568A3110F49052998389818D3311F4DA
:1003C0008BE2898380914801823511F482E289832E
:1003D00010924301CC30D10509F419821A82809120
:1003E0004801863659F480911A01882339F0EAE1F0
:1003F000F1E001900020E9F7329710828AE191E064
:10040000BE016F5F7F4F0E9404060E94B1040F90EF
:100410000F90CF91DF9108951F920F920FB60F9218
:1004200011242F933F934F935F936F937F938F93F9
:100430009F93AF93BF93EF93FF938091F00085302C
:1004400009F447C0863080F4823089F1833030F47B
:100450008823E1F0813009F074C023C0833069F152
:10046000843009F06EC02FC0883009F444C0893050
:1004700030F48630A1F1873009F063C036C089308E
:1004800009F440C08A3009F05CC042C01092EE000E
:100490008091F0008F5F8093F00081E080934301B2
:1004A00050C0869B2FC08091EE00816029C0869B42
:1004B00029C08091EE00826023C0869B23C080917A
:1004C000EE0084601DC0869B1DC08091EE00886098
:1004D00017C0869B17C08091EE00806111C0869B7B
:1004E00011C08091EE0080620BC0869B0BC0809192
:1004F000EE00806405C0869B05C08091EE00806898
:100500008093EE008091F0008F5F8093F00019C01F
:1005100091E09093EF00909342011092F00080914F
:10052000EE00803F41F48091470189278093470185
:100530009093490104C08091EE00809348010E948D
:10054000A801FF91EF91BF91AF919F918F917F9102
:100550006F915F914F913F912F910F900FBE0F9030
:100560001F901895FF920F931F93DF93CF93CDB7F2
:10057000DEB7A8970FB6F894DEBF0FBECDBF8E01D1
:100580000F5F1F4FC80160E670E00E940F06FF2456
:1005900006C0A00FB11F8C910E94A605F394F8012C
:1005A00001900020E9F73197E01BF10BAF2DB0E08F
:1005B000AE17BF0770F388EE93E028EC30E0F90146
:1005C0003197F1F70197D9F78E010F5F1F4FC801DF
:1005D0006BE670E00E940F06C80165E770E00E94BC
:1005E0000406C80162E870E00E940406FF2406C009
:1005F000A00FB11F8C910E94A605F394F801019001
:100600000020E9F73197E01BF10BAF2DB0E0AE17FA
:10061000BF0770F3A8960FB6F894DEBF0FBECDBF2C
:10062000CF91DF911F910F91FF9008957F928F924C
:100630009F92AF92BF92CF92DF92EF92FF920F9371
:100640001F93DF93CF9300D000D0CDB7DEB71092C9
:100650005B01A2EFB0E0FD0101900020E9F73197C6
:10066000EA1BFB0B2AE1822E21E0922E7D0191E212
:10067000792E00E48BE5A82E81E0B82E6E01089457
:10068000C11CD11C79C08BE591E06BE870E00E9441
:100690000406F40101900020E9F73197EA51F14096
:1006A0007097A8F020E030E0F70101900020E9F712
:1006B000E20FF31F71978081F901E55AFE4F8083A5
:1006C0002F5F3F4F2031310579F710E153C08BE5A3
:1006D00091E062EF70E00E940F0690E01AC0AD0159
:1006E0004E505F4FFA0180819D01255A3E4FF9011E
:1006F0008083FA0180818D3011F4F9017082FD014F
:10070000EE50FF4F80818A3019F4A55ABE4F0C93EA
:100710009F5FF70101900020E9F73197E25FF04019
:10072000A92FB0E0AE17BF07D0F2F501019000206D
:10073000E9F73197EB55F1401E2F07C08BE591E0AB
:100740006BE870E00E9404061F5F1031B8F3F701F8
:1007500001900020E9F73197CF01825F9040B60108
:100760004AE050E00E9416061C828AE491E0B6013D
:100770000E940F06E12FEF5FE03108F484CF0F9065
:100780000F900F900F90CF91DF911F910F91FF90DD
:10079000EF90DF90CF90BF90AF909F908F907F9021
:1007A0000895CF92DF92EF92FF920F931F93DF9302
:1007B000CF93CDB7DEB728970FB6F894DEBF0FBE44
:1007C000CDBF8091480190E0BE016F5F7F4F4AE04E
:1007D00050E00E9416061C82AAE1B1E0FD010190E2
:1007E0000020E9F73197EA1BFB0B7097A0F020E09F
:1007F00030E0FD0101900020E9F7E20FF31F71974F
:100800008081F901E65BFE4F80832F5F3F4F2031EF
:10081000310579F719C00AE411E0C801BD010E9451
:100820000F06F80101900020E9F78F0101501040F8
:100830000A54114007C08AE491E06BE870E00E941E
:1008400004060F5F0031B8F38091F100882329F08E
:100850008BE591E06DE870E004C08BE591E062E922
:1008600070E00E940F068BE591E067E970E00E945E
:10087000040600E07E010894E11CF11C33E0C32E65
:10088000D12C07C08BE591E06AE970E00E94040674
:100890000F5FF70101900020E9F73197EE19FF098A
:1008A000202F30E0C6018E1B9F0B2817390750F30D
:1008B0008BE591E0B7010E9404068BE591E06CE9BD
:1008C00070E00E9404060AE111E0F80101900020A6
:1008D000E9F73197CF01801B910BBE016B5F7F4F12
:1008E0004AE050E00E941606F80101900020E9F766
:1008F0008F01015010400A5111400A30110530F4A7
:100900008BE591E06BE870E00E9404068BE591E0D6
:10091000BE016B5F7F4F0E940406809147018823D0
:1009200049F08BE591E06FE970E00E940406AA9A15
:10093000AB9808C08BE591E063EA70E00E94040682
:10094000AA98AB9A28960FB6F894DEBF0FBECDBF1B
:10095000CF91DF911F910F91FF90EF90DF90CF909B
:100960000895EF92FF920F931F938C017B0180E01B
:1009700060E00E943901C8010E942C0180E061E022
:100980000E943901C7010E942C011F910F91FF9015
:10099000EF900895A39AA29A0895AF92BF92CF9232
:1009A000DF92EF92FF920F931F93CF93DF9384B761
:1009B000806884BF84B7806884BF8AE491E067EA76
:1009C00070E00E940F068BE591E067EA70E00E94FC
:1009D0000F06A39AA29A0E9453010E94930183E3F7
:1009E00090E00E949F0588E893E128EC30E0F9014F
:1009F0003197F1F70197D9F778940E948E01C8ECEE
:100A0000D0E064B175B180E090E00E9467065B01C0
:100A10006C0120E030E04AEF54E40E94F5067B01CF
:100A20008C0120E030E040E85FE30E943706882335
:100A30001CF461E070E022C0C801B70120E03FEF84
:100A40004FE757E40E94F1061816A4F4C601B50159
:100A500020E030E040E251E40E94F5060E943B06AF
:100A600005C0CE010197F1F7615070406115710525
:100A7000C1F707C0C801B7010E943B06CB0101972F
:100A8000F1F7AB9A64B175B180E090E00E9467061F
:100A90005B016C0120E030E04AEF54E40E94F5066F
:100AA0007B018C0120E030E040E85FE30E943706E4
:100AB00088231CF461E070E022C0C801B70120E087
:100AC0003FEF4FE757E40E94F1061816A4F4C60161
:100AD000B50120E030E040E251E40E94F5060E94BA
:100AE0003B0605C0CE010197F1F7615070406115DA
:100AF0007105C1F707C0C801B7010E943B06CB01D1
:100B00000197F1F7AB98369A88EB90E06AEB70E0CA
:100B10000E94B10476CF8CEB90E06DEC70E00E9407
:100B2000B104809148018A3529F48EED90E062EE9F
:100B300070E0F5CF86EE90E06AEE70E0F0CF90BD09
:100B400089B988E98AB986E880BD08955D9BFECFA2
:100B50008CB908955F9BFECF8CB108951F920F92C0
:100B60000FB60F9211248F93EF93FF9382E080933F
:100B700042015F9BFECF8CB1E0914601F0E0EE5068
:100B8000FF4F8083E0914601F0E0ED50FF4F10826F
:100B900080914601882391F0E0914601F0E0EF500A
:100BA000FF4F80818D3051F4E0914601F0E0EE502E
:100BB000FF4F80818A3011F41092460180914601E6
:100BC0008F5F8093460181E080934501FF91EF9113
:100BD0008F910F900FBE0F901F901895DC010D9014
:100BE0000020E9F71197A81BB90B20E007C0E80F18
:100BF000F91F30815D9BFECF3CB92F5FE22FF0E003
:100C0000EA17FB07A0F30895FB01DC010D9000201B
:100C1000E9F7119701900D920020E1F70895FB018B
:100C2000DC0101900D920020E1F70895FB019F0186
:100C3000E8944230C4F04532B4F44A3029F497FBCA
:100C40001EF4909581959F4F642F77270E949007FF
:100C5000805D8A330CF0895D8193CB010097A1F709
:100C600016F45DE251931082C9010C9458076CD0C0
:100C700008F481E0089594D088F09F5790F0B92F40
:100C80009927B751A0F0D1F0660F771F881F991FE1
:100C90001AF0BA95C9F712C0B13081F09BD0B1E01B
:100CA000089598C0672F782F8827B85F39F0B93F2B
:100CB000CCF3869577956795B395D9F73EF49095E3
:100CC0008095709561957F4F8F4F9F4F0895E89461
:100CD00009C097FB3EF490958095709561957F4F84
:100CE0008F4F9F4F9923A9F0F92F96E9BB27939532
:100CF000F695879577956795B795F111F8CFFAF442
:100D0000BB0F11F460FF1BC06F5F7F4F8F4F9F4F72
:100D100016C0882311F096E911C0772321F09EE8D0
:100D2000872F762F05C0662371F096E8862F70E036
:100D300060E02AF09A95660F771F881FDAF7880F10
:100D40009695879597F90895990F0008550FAA0B66
:100D5000E0E8FEEF16161706E807F907C0F01216CE
:100D60001306E407F50798F0621B730B840B950BD1
:100D700039F40A2661F0232B242B252B21F4089526
:100D80000A2609F4A140A6958FEF811D811D0895C3
:100D900057FD9058440F551F59F05F3F71F047952C
:100DA000880F97FB991F61F09F3F79F08795089511
:100DB000121613061406551FF2CF4695F1DF08C030
:100DC000161617061806991FF1CF8695710561054D
:100DD00008940895E894BB2766277727CB0197F9F5
:100DE0000895B2DF08F48FEF08950BD088C079D052
:100DF00028F07ED018F0952309F06AC06FC0112446
:100E0000EACFC6DFA0F3959FD1F3950F50E0551FB1
:100E1000629FF001729FBB27F00DB11D639FAA274F
:100E2000F00DB11DAA1F649F6627B00DA11D661F9E
:100E3000829F2227B00DA11D621F739FB00DA11DBF
:100E4000621F839FA00D611D221F749F3327A00D79
:100E5000611D231F849F600D211D822F762F6A2F15
:100E600011249F5750408AF0E1F088234AF0EE0F9A
:100E7000FF1FBB1F661F771F881F91505040A9F7A7
:100E80009E3F510570F024C0A6CF5F3FECF3983E23
:100E9000DCF3869577956795B795F795E7959F5F0E
:100EA000C1F7FE2B880F911D9695879597F90895A8
:100EB000DC01FC01672F71917723E1F7329704C0C1
:100EC0007C916D9370836291AE17BF07C8F308954C
:100ED00097F99F6780E870E060E008959FEF80ECED
:100EE000089500240A941616170618060906089590
:100EF00000240A9412161306140605060895092EF6
:100F00000394000C11F4882352F0BB0F40F4BF2B64
:100F100011F460FF04C06F5F7F4F8F4F9F4F0895A4
:100F2000AA1BBB1B51E107C0AA1FBB1FA617B7070F
:100F300010F0A61BB70B881F991F5A95A9F780952B
:0C0F40009095BC01CD010895F894FFCFFE
:100F4C0041542B434D47463D310000415420434D05
:100F5C0047533D22002B3438363931393238383743
:100F6C003700220D647570611A0000200043415057
:100F7C0053002020202000205B0030005D2000204A
:100F8C003C3C00203E3E0020202020202020202021
:100F9C002020202020202000620061007C54525927
:100FAC0042205345525749534F57597C007C2323B9
:100FBC002323232323232323232323237C00616143
:0E0FCC0061006262620063636300646464003B
:00000001FF
