:100000000C94AA000C940C020C94C7000C94C7002A
:100010000C94C7000C94C7000C94C7000C94C70044
:100020000C94C7000C94C7000C94C7000C94B30543
:100030000C94C7000C94C7000C94C7000C94C70024
:100040000C94C7000C94C7000C94C7000C94C70014
:100050000C94C7000000000000C800000000000071
:1000600000005E00000000000071310000007A73A3
:10007000617732000063786465343300002076666F
:1000800074723500006E626867793607082C6D6AF5
:1000900075373800002C6B696F303900002E2F6CDB
:1000A0003B702D00000060005B3D000000000D5D16
:1000B000005C00003C000000000800003100343704
:1000C000000000302C323536380000002B332D2A4A
:1000D000390000000000000000C80000000000001F
:1000E00000005E00000000000051210000005A5393
:1000F0004157400000435844452423000020564601
:1001000054522500004E424847595E07082C4D4A7C
:1001100055262A00003C4B494F292800003E3F4C01
:100120003A502D00000022007B3D000000000D7DB4
:10013000007C0000003C000000000800003100349A
:1001400037000000302C323536380000002B332DBC
:100150002A39000011241FBECFE5D4E0DEBFCDBF99
:1001600011E0A0E6B0E0E8EDFCE002C005900D92E1
:10017000A032B107D9F711E0A0E2B1E001C01D92B1
:10018000A73CB107E1F70E94CF040C94C9000C947E
:100190000000F8940C946A0680FF02C0DC9A01C04B
:1001A000DC9881FF02C0DB9A01C0DB9882FF02C0AD
:1001B000DA9A01C0DA9883FF02C0D99A0895D998D3
:1001C000089589B390E024E0969587952A95E1F704
:1001D0008170CB998260CA998460C99988600895BA
:1001E0001F93D498D398D298D198A89AA99A0E948C
:1001F000E100182F1295107FA998A99A0E94E1009A
:10020000A998812B1F91089597980E94F000089556
:100210001F93182FD49AD39AD29AD19AA898A99AB0
:1002200082958F700E94CC00A998A99A812F0E9474
:10023000CC00A9980E94040187FDFCCF1F9108956E
:1002400097980E9408010895979A0E9408010895BE
:10025000979A0E94F0000895CF93DF93EC0103C0BA
:1002600021960E94240188818823D1F7DF91CF91C4
:1002700008956295660F660F607C680F862F806810
:100280000E942001089581E00E94200180EA9FE001
:100290000197F1F7089582E00E94200180EA9FE033
:1002A0000197F1F708951F93CF93DF93D49AD39AD0
:1002B000D29AD19AA19A8F9AA09A80E395E7019752
:1002C000F1F79798A998A89810E0C0E1D7E2A99A09
:1002D00083E00E94CC00A998CE010197F1F71F5F3F
:1002E0001330A9F7A99A82E00E94CC00A99880ED6A
:1002F00097E00197F1F788E20E94200188E00E94D0
:10030000200181E00E94200186E00E9420018CE013
:100310000E942001DF91CF911F9108953E9A86B1EE
:10032000866E86B908958E98969A8A98929A8BB717
:1003300080648BBF85B7826085BF78940895809173
:1003400021018823E1F31092210180912001089579
:10035000DF93CF9300D0CDB7DEB7809175018823AE
:1003600009F455C080917B01882309F450C0109294
:100370007B01E0917A01F0E0EC5AFF4FE491E983D0
:1003800080917A01883531F48091230191E08927A9
:100390008093230180917A01853021F481E080935C
:1003A0007701198280912301882391F09981892F07
:1003B00081568A3110F49052998389818D3311F4DA
:1003C0008BE2898380917A01823511F482E28983FC
:1003D00010927501CC30D10509F419821A828091EE
:1003E0007A01863659F480914C01882339F0ECE487
:1003F000F1E001900020E9F7329710828CE491E05F
:10040000BE016F5F7F4F0E9413060E94B1040F90E0
:100410000F90CF91DF9108951F920F920FB60F9218
:1004200011242F933F934F935F936F937F938F93F9
:100430009F93AF93BF93EF93FF93809122018530F9
:1004400009F447C0863080F4823089F1833030F47B
:100450008823E1F0813009F074C023C0833069F152
:10046000843009F06EC02FC0883009F444C0893050
:1004700030F48630A1F1873009F063C036C089308E
:1004800009F440C08A3009F05CC042C010922001DB
:10049000809122018F5F8093220181E0809375011A
:1004A00050C0869B2FC080912001816029C0869B0F
:1004B00029C080912001826023C0869B23C0809147
:1004C000200184601DC0869B1DC080912001886032
:1004D00017C0869B17C080912001806111C0869B48
:1004E00011C08091200180620BC0869B0BC080915F
:1004F0002001806405C0869B05C080912001806832
:1005000080932001809122018F5F8093220119C086
:1005100091E09093210190937401109222018091B7
:100520002001803F41F480917901892780937901EE
:1005300090937B0104C08091200180937A010E94F6
:10054000A801FF91EF91BF91AF919F918F917F9102
:100550006F915F914F913F912F910F900FBE0F9030
:100560001F901895FF920F931F93DF93CF93CDB7F2
:10057000DEB7A8970FB6F894DEBF0FBECDBF8E01D1
:100580000F5F1F4FC80160E670E00E941E06FF2447
:1005900006C0A00FB11F8C910E94AB05F394F80127
:1005A00001900020E9F73197E01BF10BAF2DB0E08F
:1005B000AE17BF0770F388EE93E028EC30E0F90146
:1005C0003197F1F70197D9F78E010F5F1F4FC801DF
:1005D0006BE670E00E941E06C80165E770E00E94AD
:1005E0001306C80162E870E00E941306FF2406C0EB
:1005F000A00FB11F8C910E94AB05F394F8010190FC
:100600000020E9F73197E01BF10BAF2DB0E0AE17FA
:10061000BF0770F3A8960FB6F894DEBF0FBECDBF2C
:10062000CF91DF911F910F91FF9008957F928F924C
:100630009F92AF92BF92CF92DF92EF92FF920F9371
:100640001F93DF93CF9300D000D0CDB7DEB71092C9
:100650008D01A4E2B1E0FD0101900020E9F731979E
:10066000EA1BFB0B2CE4822E21E0922E7D0191E20D
:10067000792E00E48DE8A82E81E0B82E6E01089452
:10068000C11CD11C79C08DE891E06BE870E00E943C
:100690001306F40101900020E9F73197EC54F14082
:1006A0007097A8F020E030E0F70101900020E9F712
:1006B000E20FF31F71978081F901E357FE4F8083AA
:1006C0002F5F3F4F2031310579F710E153C08DE89E
:1006D00091E064E271E00E941E0690E01AC0AD0154
:1006E0004C5D5E4FFA0180819D0123573E4FF90119
:1006F0008083FA0180818D3011F4F9017082FD014F
:10070000EC5DFE4F80818A3019F4A357BE4F0C93E5
:100710009F5FF70101900020E9F73197E452F14023
:10072000A92FB0E0AE17BF07D0F2F501019000206D
:10073000E9F73197ED58F1401E2F07C08DE891E0A1
:100740006BE870E00E9413061F5F1031B8F3F701E9
:1007500001900020E9F73197CF0184529140B60112
:100760004AE050E00E9425061C828CE791E0B60129
:100770000E941E06E12FEF5FE03108F484CF0F9056
:100780000F900F900F90CF91DF911F910F91FF90DD
:10079000EF90DF90CF90BF90AF909F908F907F9021
:1007A0000895CF92DF92EF92FF920F931F93DF9302
:1007B000CF93CDB7DEB728970FB6F894DEBF0FBE44
:1007C000CDBF80917A0190E0BE016F5F7F4F4AE01C
:1007D00050E00E9425061C82ACE4B1E0FD010190CE
:1007E0000020E9F73197EA1BFB0B7097A0F020E09F
:1007F00030E0FD0101900020E9F7E20FF31F71974F
:100800008081F901E458FE4F80832F5F3F4F2031F4
:10081000310579F719C00CE711E0C801BD010E944C
:100820001E06F80101900020E9F78F0101501040E9
:100830000C57114007C08CE791E06BE870E00E9414
:1008400013060F5F0031B8F380912301882329F04C
:100850008DE891E06DE870E004C08DE891E062E918
:1008600070E00E941E068DE891E067E970E00E944A
:10087000130600E07E010894E11CF11C33E0C32E56
:10088000D12C07C08DE891E06AE970E00E94130660
:100890000F5FF70101900020E9F73197EE19FF098A
:1008A000202F30E0C6018E1B9F0B2817390750F30D
:1008B0008DE891E0B7010E9413068DE891E06CE9A4
:1008C00070E00E9413060CE411E0F8010190002092
:1008D000E9F73197CF01801B910BBE016B5F7F4F12
:1008E0004AE050E00E942506F80101900020E9F757
:1008F0008F01015010400C5411400A30110530F4A2
:100900008DE891E06BE870E00E9413068DE891E0BD
:10091000BE016B5F7F4F0E9413068091790188238F
:1009200049F08DE891E06FE970E00E941306AA9A01
:10093000AB9808C08DE891E063EA70E00E9413066E
:10094000AA98AB9A28960FB6F894DEBF0FBECDBF1B
:10095000CF91DF911F910F91FF90EF90DF90CF909B
:100960000895EF92FF920F931F938C017B010E94D9
:10097000160380E060E00E943901C8010E942C014A
:1009800080E061E00E943901C7010E942C011F91A3
:100990000F91FF90EF900895A39AA29A0895CF9295
:1009A000DF92EF92FF920F931F93DF93CF9300D0CC
:1009B00000D0CDB7DEB784B7806884BF84B78068C5
:1009C00084BF8CE791E067EA70E00E941E068DE824
:1009D00091E067EA70E00E941E06A39AA29A0E9424
:1009E00053010E94930183E390E00E94A40580E2FA
:1009F0009EE428EC30E0F9013197F1F70197D9F73F
:100A000080E29EE428EC30E0F9013197F1F701979C
:100A1000D9F780E29EE428EC30E0F9013197F1F754
:100A20000197D9F780E29EE428EC30E0F901319794
:100A3000F1F70197D9F788EB90E00E94F30580E287
:100A40009EE428EC30E0F9013197F1F70197D9F7EE
:100A500078940E948E018CE491E06BEB70E00E9430
:100A60001E0600E010E088ECE82EF12C6E010894E0
:100A7000C11CD11C8CE491E06FEB70E00E941E065B
:100A80008CE491E00E94F30580E395E7F70131974C
:100A9000F1F70197D9F7AB9A8CE491E06BEC70E039
:100AA0000E941E068CE491E00E94F30580E29EE421
:100AB000F7013197F1F70197D9F7AB988CE491E002
:100AC00064EE70E00E941E06C801B6014AE050E0E4
:100AD0000E9425068CE491E0B6010E9413068CE486
:100AE00091E069EE70E00E9413068CE491E00E94B0
:100AF000F3058FEF9FEFF7013197F1F70197D9F7E2
:100B000080E29EE4F7013197F1F70197D9F70F5F83
:100B10001F4F8CE791E06DE871E00E94B104AACF0D
:100B20008DEE90E06EEF70E00E94B10480917A014A
:100B30008A3529F48FE091E063E171E0F5CF87E138
:100B400091E06BE171E0F0CF90BD89B988E98AB995
:100B500086E880BD08955D9BFECF8CB908955F9BAC
:100B6000FECF8CB108951F920F920FB60F921124F1
:100B70008F93EF93FF9382E0809374015F9BFECF8E
:100B80008CB1E0917801F0E0EC5DFE4F8083E09164
:100B90007801F0E0EB5DFE4F1082809178018823B0
:100BA00091F0E0917801F0E0ED5DFE4F80818D30B5
:100BB00051F4E0917801F0E0EC5DFE4F80818A30E5
:100BC00011F410927801809178018F5F8093780101
:100BD00081E080937701FF91EF918F910F900FBE8D
:100BE0000F901F901895DC010D900020E9F71197E8
:100BF000A81BB90B40E068EC70E00FC0E80FF91FCC
:100C000020815D9BFECF2CB928EE33E0FB013197AC
:100C1000F1F721503040D1F74F5FE42FF0E0EA17B1
:100C2000FB0760F30895FB01DC010D900020E9F75C
:100C3000119701900D920020E1F70895FB01DC016E
:100C400001900D920020E1F70895FB019F01E894C7
:100C50004230C4F04532B4F44A3029F497FB1EF414
:100C6000909581959F4F642F77270E945606805D4F
:100C70008A330CF0895D8193CB010097A1F716F4BC
:100C80005DE251931082C9010C944606DC01FC011F
:100C9000672F71917723E1F7329704C07C916D93B0
:100CA00070836291AE17BF07C8F30895AA1BBB1BE0
:100CB00051E107C0AA1FBB1FA617B70710F0A61B5C
:100CC000B70B881F991F5A95A9F780959095BC017D
:080CD000CD010895F894FFCF57
:100CD80041542B434D47463D310000415420434D7C
:100CE80047533D22002B34383639313932383837BA
:100CF8003700220D647570611A00002000434150CE
:100D080053002020202000205B0030005D200020C0
:100D18003C3C00203E3E0020202020202020202097
:100D280020202020202020000D0A0041540A0041E4
:100D3800542B434D47463D310D0A0041542B434D3A
:100D480047533D222B343836393139323838373722
:100D5800220D0A0064757061001A0D0A007C545255
:100D68005942205345525749534F57597C007C23C9
:100D7800232323232323232323232323237C0061C7
:100D8800616100626262006363630064646400001E
:00000001FF
