:100000000C942A000C9447000C9447000C94470071
:100010000C9447000C9447000C9447000C94470044
:100020000C9447000C9447000C9447000C94470034
:100030000C9447000C9447000C9447000C94470024
:100040000C9447000C9447000C9447000C94470014
:100050000C94470011241FBECFE5D4E0DEBFCDBF16
:1000600010E0A0E6B0E0E0EEF6E002C005900D92F0
:10007000AC38B107D9F711E0ACE8B0E001C01D928F
:10008000AF32B107E1F70E94C7020C946E030C94E3
:10009000000080FF02C0DC9A01C0DC9881FF02C032
:1000A000DB9A01C0DB9882FF02C0DA9A01C0DA98BD
:1000B00083FF02C0D99A0895D998089589B390E032
:1000C00024E0969587952A95E1F78170CB99826017
:1000D000CA998460C999886008951F93D498D39869
:1000E000D298D198A89AA99A0E945E00182F1295CA
:1000F000107FA998A99A0E945E00A998812B1F9150
:10010000089597980E946D0008951F93182FD49A10
:10011000D39AD29AD19AA898A99A82958F700E9460
:100120004900A998A99A812F0E944900A9980E9484
:10013000810087FDFCCF1F91089597980E9485004C
:100140000895979A0E9485000895979A0E946D00DD
:100150000895CF93DF93EC0103C021960E94A10084
:1001600088818823D1F7DF91CF9108956295660F3A
:10017000660F607C680F862F80680E949D0008953E
:1001800081E00E949D0080EA9FE00197F1F70895C9
:1001900082E00E949D0080EA9FE00197F1F70895B8
:1001A0001F93CF93DF93D49AD39AD29AD19AA19ADC
:1001B0008F9AA09A80E395E70197F1F79798A9980D
:1001C000A89810E0C0E1D7E2A99A83E00E94490014
:1001D000A998CE010197F1F71F5F1330A9F7A99AEB
:1001E00082E00E944900A99880ED97E00197F1F71D
:1001F00088E20E949D0088E00E949D0081E00E94AC
:100200009D0086E00E949D008CE00E949D00DF9191
:10021000CF911F9108953E9A86B1866E86B9089552
:100220007F928F929F92AF92BF92CF92DF92EF9286
:10023000FF920F931F93DF93CF9300D000D0CDB7E1
:10024000DEB71092F600ADE8B0E0FD0101900020AD
:10025000E9F73197EA1BFB0B25EB822E20E0922E6B
:100260007D0191E2792E00E486EFA82E80E0B82E81
:100270006E010894C11CD11C79C086EF90E060E645
:1002800070E00E941703F40101900020E9F7319714
:10029000E55BF0407097A8F020E030E0F7010190B6
:1002A0000020E9F7E20FF31F71978081F901EA500E
:1002B000FF4F80832F5F3F4F2031310579F710E1E9
:1002C00053C086EF90E06DE870E00E94220390E05A
:1002D0001AC0AD0143575F4FFA0180819D012A503A
:1002E0003F4FF9018083FA0180818D3011F4F901CB
:1002F0007082FD01E357FF4F80818A3019F4AA50C4
:10030000BF4F0C939F5FF70101900020E9F73197F1
:10031000ED58F040A92FB0E0AE17BF07D0F2F501BD
:1003200001900020E9F73197E65FF0401E2F07C0EB
:1003300086EF90E060E670E00E9417031F5F1031C7
:10034000B8F3F70101900020E9F73197CF018D58FC
:100350009040B6014AE050E00E9429031C8285EEDD
:1003600090E0B6010E942203E12FEF5FE03108F434
:1003700084CF0F900F900F900F90CF91DF911F912E
:100380000F91FF90EF90DF90CF90BF90AF909F9034
:100390008F907F900895CF92DF92EF92FF920F930C
:1003A0001F93DF93CF93CDB7DEB728970FB6F8949E
:1003B000DEBF0FBECDBF8091E30090E0BE016F5F56
:1003C0007F4F4AE050E00E9429031C82A5EBB0E079
:1003D000FD0101900020E9F73197EA1BFB0B7097B4
:1003E000A0F020E030E0FD0101900020E9F7E20FED
:1003F000F31F71978081F901EB51FF4F80832F5FCD
:100400003F4F2031310579F719C005EE10E0C801E2
:10041000BD010E942203F80101900020E9F78F013D
:1004200001501040055E104007C085EE90E060E688
:1004300070E00E9417030F5F0031B8F380918C00C9
:10044000882329F086EF90E062E670E004C086EF32
:1004500090E067E670E00E94220386EF90E06CE691
:1004600070E00E94170300E07E010894E11CF11C7B
:1004700033E0C32ED12C07C086EF90E06FE670E02A
:100480000E9417030F5FF70101900020E9F73197F1
:10049000EE19FF09202F30E0C6018E1B9F0B281795
:1004A000390750F386EF90E0B7010E94170386EFFB
:1004B00090E061E770E00E94170305EB10E0F8019F
:1004C00001900020E9F73197CF01801B910BBE010D
:1004D0006B5F7F4F4AE050E00E942903F8010190D2
:1004E0000020E9F78F0101501040055B10400A30F1
:1004F000110530F486EF90E060E670E00E9417038B
:1005000086EF90E0BE016B5F7F4F0E9417038091E2
:10051000E200882349F086EF90E064E770E00E94F3
:100520001703AA9AAB9808C086EF90E068E770E0DE
:100530000E941703AA98AB9A28960FB6F894DEBFCC
:100540000FBECDBFCF91DF911F910F91FF90EF9024
:10055000DF90CF900895EF92FF920F931F938C013D
:100560007B0180E060E00E94B600C8010E94A90003
:1005700080E061E00E94B600C7010E94A9001F91BF
:100580000F91FF90EF900895A39AA29A0895EF9289
:10059000FF920F931F93DF93CF9300D000D000D032
:1005A000CDB7DEB784B7806884BF84B7806884BF66
:1005B0000E94D00088E893E128EC30E0F9013197FF
:1005C000F1F70197D9F70E940B0188E893E128EC35
:1005D00030E0F9013197F1F70197D9F77894DE010E
:1005E0001196E5E8F0E086E001900D928150E1F788
:1005F0008E010F5F1F4F88ECE82EF12C84B195B16E
:10060000B8014AE050E00E942903C8016CE770E09D
:100610000E941703C80160E870E00E94AB0288EBFB
:100620009BE0F7013197F1F70197D9F7E7CFFB018D
:10063000DC010D900020E9F7119701900D92002048
:10064000E1F70895FB01DC0101900D920020E1F734
:100650000895FB019F01E8944230C4F04532B4F4A0
:100660004A3029F497FB1EF4909581959F4F642F93
:1006700077270E945A03805D8A330CF0895D81934D
:10068000CB010097A1F716F45DE251931082C901E6
:100690000C944A03DC01FC01672F71917723E1F789
:1006A000329704C07C916D9370836291AE17BF073F
:1006B000C8F30895AA1BBB1B51E107C0AA1FBB1FAB
:1006C000A617B70710F0A61BB70B881F991F5A95DE
:1006D000A9F780959095BC01CD010895F894FFCFBE
:1006E000200043415053002020202000205B003098
:1006F000005D2000203C3C00203E3E0020202000E9
:0C0700006475706100616161616100005E
:00000001FF
