:100000000C9439000C9456000C9456000C94560035
:100010000C9456000C9456000C944C040C9456000E
:100020000C9456000C9456000C9456000C945600F8
:100030000C9456000C9456000C9456000C945600E8
:100040000C9456000C9456000C9456000C945600D8
:100050000C94560005A84CCDB2D44EB93836A9023E
:100060000C50B9918688083CA6AAAA2ABE000000B6
:10007000803F11241FBECFE5D4E0DEBFCDBF11E02D
:10008000A0E6B0E0E2E1FEE002C005900D92AA37E2
:10009000B107D9F711E0AAE7B1E001C01D92A43F72
:1000A000B107E1F70E94E1040C9407070C94840463
:1000B000A0E2B0E0EEE5F0E00C943B0569837A83C2
:1000C0008B839C832D833E834F835887CE0101967B
:1000D000BE01675F7F4F0E94D403CE010596BE012B
:1000E0006F5E7F4F0E94D4039985923088F0898992
:1000F0008230C8F0943019F4823051F404C0843056
:1001000029F4923081F480E690E0C6C0923049F440
:1001100020E09A858A89981321E02A87CE010996E2
:10012000BBC0823049F420E09A858A89981321E087
:100130002A8BCE014196B0C02D843E844F845888CE
:100140006D887E888F88988CEE24FF248701AA24EE
:10015000BB24650140E050E060E070E0E0E0F0E0EA
:10016000C10181709070892BE9F0E60CF71C081D25
:10017000191D9A01AB012A0D3B1D4C1D5D1D80E030
:1001800090E0A0E0B0E0E614F7040805190520F4BB
:1001900081E090E0A0E0B0E0BA01A901480F591F4A
:1001A0006A1F7B1FAA0CBB1CCC1CDD1C97FE08C061
:1001B00081E090E0A0E0B0E0A82AB92ACA2ADB2AB0
:1001C0003196E032F10549F0660C771C881C991CC9
:1001D0005694479437942794C3CFFA85EA892B899C
:1001E0003C898B859C85280F391F2E5F3F4F17C098
:1001F000CA0181709070892B61F016950795F7946C
:10020000E79480E090E0A0E0B0E8E82AF92A0A2B21
:100210001B2B76956795579547952F5F3F4F77FD39
:10022000E7CF0CC0440F551F661F771F17FD4160B5
:10023000EE0CFF1C001F111F21503040403090E099
:10024000590790E0690790E4790760F32B8F3C8FA2
:10025000DB01CA018F779070A070B0708034910577
:10026000A105B10561F447FD0AC0E114F1040105DF
:10027000110529F0405C5F4F6F4F7F4F40781A8E19
:10028000FE1711F081E08A8F4D8F5E8F6F8F78A3FC
:1002900083E0898FCE0149960E94FF02A096E2E199
:1002A0000C945705A8E1B0E0E8E5F1E00C944305B3
:1002B00069837A838B839C832D833E834F83588706
:1002C000B9E0EB2EF12CEC0EFD1ECE010196B7012C
:1002D0000E94D4038E010F5E1F4FCE010596B80118
:1002E0000E94D4032985223008F47EC03989323037
:1002F00010F4B8017CC08A859A8989278A872430BE
:1003000011F0223031F4231709F06EC060E670E07E
:100310006EC0343039F41D861E861F86188A1C86EE
:100320001B8604C0323021F484E08987B7015FC0A6
:100330002B853C858B899C89281B390B3C872B8717
:10034000ED84FE840F851889AD88BE88CF88D88C4F
:10035000EA14FB040C051D0540F4EE0CFF1C001F05
:10036000111F215030403C872B8720E030E040E0D7
:1003700050E080E090E0A0E0B0E460E070E0EA14DB
:10038000FB040C051D0540F0282B392B4A2B5B2B59
:10039000EA18FB080C091D09B695A795979587954E
:1003A000EE0CFF1C001F111F6F5F7F4F6F31710537
:1003B00031F7DA01C9018F779070A070B070803486
:1003C0009105A105B10561F427FD0AC0E114F1040E
:1003D0000105110529F0205C3F4F4F4F5F4F2078FA
:1003E0002D873E874F87588BBE01675F7F4FCB01BC
:1003F0000E94FF026896EAE00C945F05A8E0B0E076
:10040000E4E0F2E00C9444059B01AC0183E08983B5
:10041000DA01C9018827B7FD83959927AA27BB2749
:10042000B82E211531054105510519F482E0898363
:100430003AC08823A9F0203080E0380780E04807E0
:1004400080E8580729F460E070E080E09FEC30C05D
:10045000EE24FF248701E21AF30A040B150B02C0F5
:1004600079018A018EE1C82ED12CDC82CB82ED820B
:10047000FE820F831887C801B7010E94B00201975E
:100480001816190684F4082E04C0EE0CFF1C001F79
:10049000111F0A94D2F7ED82FE820F831887C81AC3
:1004A000D90ADC82CB82BA82CE0101960E94FF0279
:1004B0002896E9E00C946005ACE0B0E0E2E6F2E0FA
:1004C0000C944B0569837A838B839C83CE010196C0
:1004D000BE016B5F7F4F0E94D4038D81823061F13A
:1004E000823050F1843021F48E81882351F12EC066
:1004F0002F81388537FD20C06E812F3131051CF0EA
:100500006623F9F023C08EE190E0821B930B2985CE
:100510003A854B855C8504C0569547953795279558
:100520008A95D2F76623B1F0509540953095219584
:100530003F4F4F4F5F4F0EC020E030E040E050E0B3
:1005400009C02FEF3FEF4FEF5FE704C020E030E03E
:1005500040E050E8B901CA012C96E2E00C9467052E
:10056000EF92FF920F931F937B018C0180E0E816BE
:1005700080E0F80681E0080780E0180788F48FEF34
:10058000E816F1040105110531F028F088E090E04B
:10059000A0E0B0E017C080E090E0A0E0B0E012C0C2
:1005A00080E0E81680E0F80680E0080781E01807A0
:1005B00028F088E190E0A0E0B0E004C080E190E0A5
:1005C000A0E0B0E020E230E040E050E0281B390B32
:1005D0004A0B5B0B04C016950795F794E7948A9530
:1005E000D2F7F701E859FF4F8081281B31094109F3
:1005F0005109C9011F910F91FF90EF900895DF926B
:10060000EF92FF920F931F93FC01E480F580068127
:100610001781D1808081823048F480E090E0A0E1B1
:10062000B0E0E82AF92A0A2B1B2BA5C0843009F474
:100630009FC0823021F4EE24FF24870105C0E1141D
:10064000F1040105110519F4E0E0F0E096C06281C3
:1006500073819FEF623879070CF05BC022E83FEFAF
:10066000261B370B2A3131052CF020E030E040E02A
:1006700050E02AC0B801A701022E04C07695679504
:10068000579547950A94D2F781E090E0A0E0B0E05A
:1006900004C0880F991FAA1FBB1F2A95D2F7019784
:1006A000A109B1098E219F21A023B1230097A105A3
:1006B000B10521F081E090E0A0E0B0E09A01AB014B
:1006C000282B392B4A2B5B2BDA01C9018F779070CD
:1006D000A070B07080349105A105B10539F427FFF1
:1006E00009C0205C3F4F4F4F5F4F04C0215C3F4F1C
:1006F0004F4F5F4FE0E0F0E02030A0E03A07A0E08D
:100700004A07A0E45A0710F0E1E0F0E079018A011D
:1007100027C06038710564F5FB01E158FF4FD8012F
:10072000C7018F779070A070B07080349105A105DB
:10073000B10539F4E7FE0DC080E490E0A0E0B0E040
:1007400004C08FE390E0A0E0B0E0E80EF91E0A1FBD
:100750001B1F17FF05C016950795F794E794319670
:1007600087E016950795F794E7948A95D1F705C029
:10077000EE24FF248701EFEFF0E06E2F67956627E8
:100780006795902F9F77D794DD24D7948E2F8695E9
:10079000492F462B582F5D29B701CA011F910F9190
:1007A000FF90EF90DF900895FC01DB0140815181C3
:1007B0002281622F6F7770E0221F2227221F9381F0
:1007C000892F880F822B282F30E0991F9927991F96
:1007D00011969C93119721153105A9F541155105E5
:1007E0006105710511F482E037C082E89FEF13962E
:1007F0009C938E9312979A01AB0167E0220F331FEF
:10080000441F551F6A95D1F783E08C930DC0220FCA
:10081000331F441F551F12968D919C91139701977A
:1008200013969C938E931297203080E0380780E0D7
:10083000480780E4580758F314962D933D934D9341
:100840005C93179708952F3F310579F441155105B1
:100850006105710519F484E08C93089564FF03C069
:1008600081E08C9312C01C9210C02F573040139619
:100870003C932E93129783E08C9387E0440F551F8F
:10088000661F771F8A95D1F7706414964D935D9318
:100890006D937C93179708951F920F920FB60F9246
:1008A00011242F933F938F939F93EF93FF93809106
:1008B0007A0190917B01019690937B0180937A015C
:1008C000E0917A01F0917B01E558FE4F808190E044
:1008D0009BBD8ABD20917A0130917B018091680196
:1008E000909169012817390724F010927B0110922A
:1008F0007A01FF91EF919F918F913F912F910F90EE
:100900000FBE0F901F9018951F920F920FB60F9267
:1009100011240F900FBE0F901F9018958FB580680F
:100920008FBD08958FB58F778FBD0895AF92BF9219
:10093000CF92DF92EF92FF920F931F93CF93DF93AB
:10094000C09AA0906801B0906901B501882777FD31
:100950008095982F0E94FE016B017C01C0E0D0E0E1
:1009600021C0BE01882777FD8095982F0E94FE0147
:10097000A70196010E9452012BED3FE049EC50E4A3
:100980000E9458000E9472058E0104581E4F20E0FC
:1009900030E040E853E40E9458000E945C02F801F5
:1009A00060832196CA15DB05E4F2C098DF91CF91F0
:1009B0001F910F91FF90EF90DF90CF90BF90AF907D
:1009C0000895CF92DF92EF92FF920F931F93DF93E0
:1009D000CF93CDB7DEB760970FB6F894DEBF0FBEEA
:1009E000CDBFDE011196EAE6F1E080E101900D92C3
:1009F0008150E1F781B3806681BB82B3806682BBA0
:100A00008FB581688FBD8EB589608EBD80E890E01E
:100A10009BBD8ABD89B7806189BF78940E94960486
:100A200000E010E06E010894C11CD11C98ECE92E86
:100A3000F12C8FB580688FBDF801EE0FFF1FEC0D14
:100A4000FD1D8081918190936901809368010E94CE
:100A5000960482EE94E0F7013197F1F70197D9F708
:100A60008FB58F778FBD0F5F1F4F0130110509F3D1
:100A700000E010E0DECF2F923F924F925F926F9294
:100A80007F928F929F92AF92BF92CF92DF92EF921E
:100A9000FF920F931F93CF93DF93CDB7DEB7CA1B9F
:100AA000DB0B0FB6F894DEBF0FBECDBF09942A88CA
:100AB000398848885F846E847D848C849B84AA8472
:100AC000B984C884DF80EE80FD800C811B81AA81FF
:100AD000B981CE0FD11D0FB6F894DEBF0FBECDBFCA
:100AE000ED0108959F9305D00F9007FCEE5F28C09D
:100AF000CEC03FD0E8F3E894E0E0BB279F57F0F08A
:100B00002AED3FE049EC06C0EE0FBB0F661F771FD2
:100B1000881F28F0B23A62077307840728F0B25A98
:100B2000620B730B840BE3959A9572F7803830F45F
:100B30009A95BB0F661F771F881FD2F790489BC0FE
:100B4000EF93E0FF06C0A2EA2AED3FE049EC5FEB3D
:100B500037D0BFD00F90039401FC9058E4E5F0E04B
:100B600099C057FD9058440F551F59F05F3F71F0E1
:100B70004795880F97FB991F61F09F3F79F0879504
:100B80000895121613061406551FF2CF4695F1DF8D
:100B900008C0161617061806991FF1CF869571051D
:100BA00061050894089587D030F08CD020F031F49E
:100BB0009F3F11F41EF46BC00EF4E095E7FB53C0A9
:100BC000E92FCFDF80F3BA17620773078407950711
:100BD00018F071F49EF58EC00EF4E0950B2EBA2F2E
:100BE000A02D0B01B90190010C01CA01A001112433
:100BF000FF27591B99F0593F50F4503E68F11A16DF
:100C0000F040A22F232F342F4427585FF3CF46956F
:100C100037952795A795F0405395C9F77EF41F1691
:100C2000BA0B620B730B840BBAF09150A1F0FF0F5B
:100C3000BB1F661F771F881FC2F70EC0BA0F621F47
:100C4000731F841F48F4879577956795B795F79537
:100C50009E3F08F0B3CF9395880F08F09927EE0FC9
:100C600097958795089597F99F6780E870E060E011
:100C700008959F3F31F0915020F4879577956795BF
:100C8000B795880F911D9695879597F908959FEFD1
:100C900080EC08959F938F937F936F93FF93EF93CF
:100CA0009B01AC0105DAEF91FF912BD02F913F9181
:100CB0004F915F91FDC900240A9416161706180675
:100CC0000906089500240A94121613061406050650
:100CD0000895092E0394000C11F4882352F0BB0FE1
:100CE00040F4BF2B11F460FF04C06F5F7F4F8F4F44
:100CF0009F4F0895E894BB2766277727CB0197F984
:100D00000895DF93CF931F930F93FF92EF92DF929B
:100D10007B018C01689405C0DA2EEF0121D0FE0121
:100D2000E894A5912591359145915591AEF3EF0148
:100D300047DFFE019701A801DA9479F7DF90EF9081
:100D4000FF900F911F91CF91DF910895B4DF28F0AC
:100D5000B9DF18F0952309F086CF99CF1124CBCFB6
:100D600000DFA0F3959FD1F3950F50E0551F629FD0
:100D7000F001729FBB27F00DB11D639FAA27F00DF4
:100D8000B11DAA1F649F6627B00DA11D661F829F1B
:100D90002227B00DA11D621F739FB00DA11D621F00
:100DA000839FA00D611D221F749F3327A00D611D1D
:100DB000231F849F600D211D822F762F6A2F1124FF
:100DC0009F5750408AF0E1F088234AF0EE0FFF1F52
:100DD000BB1F661F771F881F91505040A9F79E3F89
:100DE000510570F040CF87CF5F3FECF3983EDCF3C6
:100DF000869577956795B795F795E7959F5FC1F7C6
:100E0000FE2B880F911D9695879597F90895F89474
:020E1000FFCF12
:100E120000000000000000000001020203030303BF
:100E22000404040404040404050505050505050578
:100E32000505050505050505060606060606060658
:100E42000606060606060606060606060606060640
:100E52000606060606060606070707070707070728
:100E62000707070707070707070707070707070710
:100E72000707070707070707070707070707070700
:100E820007070707070707070707070707070707F0
:100E920007070707070707070808080808080808D8
:100EA20008080808080808080808080808080808C0
:100EB20008080808080808080808080808080808B0
:100EC20008080808080808080808080808080808A0
:100ED2000808080808080808080808080808080890
:100EE2000808080808080808080808080808080880
:100EF2000808080808080808080808080808080870
:100F0200080808080808080808080808080808085F
:100F12000808080808080808770077003C005F0006
:0A0F22005900500047003F003C005A
:00000001FF
